{
    "_format": "hh-sol-artifact-1",
    "contractName": "MichyNft",
    "sourceName": "contracts/nftToken.sol",
    "abi": [
        {
            "inputs": [],
            "stateMutability": "nonpayable",
            "type": "constructor"
        },
        {
            "anonymous": false,
            "inputs": [
                {
                    "indexed": true,
                    "internalType": "address",
                    "name": "owner",
                    "type": "address"
                },
                {
                    "indexed": true,
                    "internalType": "address",
                    "name": "approved",
                    "type": "address"
                },
                {
                    "indexed": true,
                    "internalType": "uint256",
                    "name": "tokenId",
                    "type": "uint256"
                }
            ],
            "name": "Approval",
            "type": "event"
        },
        {
            "anonymous": false,
            "inputs": [
                {
                    "indexed": true,
                    "internalType": "address",
                    "name": "owner",
                    "type": "address"
                },
                {
                    "indexed": true,
                    "internalType": "address",
                    "name": "operator",
                    "type": "address"
                },
                {
                    "indexed": false,
                    "internalType": "bool",
                    "name": "approved",
                    "type": "bool"
                }
            ],
            "name": "ApprovalForAll",
            "type": "event"
        },
        {
            "anonymous": false,
            "inputs": [
                {
                    "indexed": false,
                    "internalType": "address",
                    "name": "sender",
                    "type": "address"
                },
                {
                    "indexed": false,
                    "internalType": "uint256",
                    "name": "tokenId",
                    "type": "uint256"
                }
            ],
            "name": "NewMichyNftMinted",
            "type": "event"
        },
        {
            "anonymous": false,
            "inputs": [
                {
                    "indexed": true,
                    "internalType": "address",
                    "name": "from",
                    "type": "address"
                },
                {
                    "indexed": true,
                    "internalType": "address",
                    "name": "to",
                    "type": "address"
                },
                {
                    "indexed": true,
                    "internalType": "uint256",
                    "name": "tokenId",
                    "type": "uint256"
                }
            ],
            "name": "Transfer",
            "type": "event"
        },
        {
            "inputs": [
                {
                    "internalType": "address",
                    "name": "to",
                    "type": "address"
                },
                {
                    "internalType": "uint256",
                    "name": "tokenId",
                    "type": "uint256"
                }
            ],
            "name": "approve",
            "outputs": [],
            "stateMutability": "nonpayable",
            "type": "function"
        },
        {
            "inputs": [
                {
                    "internalType": "address",
                    "name": "owner",
                    "type": "address"
                }
            ],
            "name": "balanceOf",
            "outputs": [
                {
                    "internalType": "uint256",
                    "name": "",
                    "type": "uint256"
                }
            ],
            "stateMutability": "view",
            "type": "function"
        },
        {
            "inputs": [
                {
                    "internalType": "uint256",
                    "name": "tokenId",
                    "type": "uint256"
                }
            ],
            "name": "getApproved",
            "outputs": [
                {
                    "internalType": "address",
                    "name": "",
                    "type": "address"
                }
            ],
            "stateMutability": "view",
            "type": "function"
        },
        {
            "inputs": [],
            "name": "getNfts",
            "outputs": [],
            "stateMutability": "nonpayable",
            "type": "function"
        },
        {
            "inputs": [
                {
                    "internalType": "uint256",
                    "name": "tokenId",
                    "type": "uint256"
                }
            ],
            "name": "getRandomAnimals",
            "outputs": [
                {
                    "internalType": "string",
                    "name": "",
                    "type": "string"
                }
            ],
            "stateMutability": "view",
            "type": "function"
        },
        {
            "inputs": [
                {
                    "internalType": "uint256",
                    "name": "tokenId",
                    "type": "uint256"
                }
            ],
            "name": "getRandomFoodItem",
            "outputs": [
                {
                    "internalType": "string",
                    "name": "",
                    "type": "string"
                }
            ],
            "stateMutability": "view",
            "type": "function"
        },
        {
            "inputs": [
                {
                    "internalType": "uint256",
                    "name": "tokenId",
                    "type": "uint256"
                }
            ],
            "name": "getRandomFruits",
            "outputs": [
                {
                    "internalType": "string",
                    "name": "",
                    "type": "string"
                }
            ],
            "stateMutability": "view",
            "type": "function"
        },
        {
            "inputs": [
                {
                    "internalType": "address",
                    "name": "owner",
                    "type": "address"
                },
                {
                    "internalType": "address",
                    "name": "operator",
                    "type": "address"
                }
            ],
            "name": "isApprovedForAll",
            "outputs": [
                {
                    "internalType": "bool",
                    "name": "",
                    "type": "bool"
                }
            ],
            "stateMutability": "view",
            "type": "function"
        },
        {
            "inputs": [],
            "name": "name",
            "outputs": [
                {
                    "internalType": "string",
                    "name": "",
                    "type": "string"
                }
            ],
            "stateMutability": "view",
            "type": "function"
        },
        {
            "inputs": [
                {
                    "internalType": "uint256",
                    "name": "tokenId",
                    "type": "uint256"
                }
            ],
            "name": "ownerOf",
            "outputs": [
                {
                    "internalType": "address",
                    "name": "",
                    "type": "address"
                }
            ],
            "stateMutability": "view",
            "type": "function"
        },
        {
            "inputs": [
                {
                    "internalType": "address",
                    "name": "from",
                    "type": "address"
                },
                {
                    "internalType": "address",
                    "name": "to",
                    "type": "address"
                },
                {
                    "internalType": "uint256",
                    "name": "tokenId",
                    "type": "uint256"
                }
            ],
            "name": "safeTransferFrom",
            "outputs": [],
            "stateMutability": "nonpayable",
            "type": "function"
        },
        {
            "inputs": [
                {
                    "internalType": "address",
                    "name": "from",
                    "type": "address"
                },
                {
                    "internalType": "address",
                    "name": "to",
                    "type": "address"
                },
                {
                    "internalType": "uint256",
                    "name": "tokenId",
                    "type": "uint256"
                },
                {
                    "internalType": "bytes",
                    "name": "_data",
                    "type": "bytes"
                }
            ],
            "name": "safeTransferFrom",
            "outputs": [],
            "stateMutability": "nonpayable",
            "type": "function"
        },
        {
            "inputs": [
                {
                    "internalType": "address",
                    "name": "operator",
                    "type": "address"
                },
                {
                    "internalType": "bool",
                    "name": "approved",
                    "type": "bool"
                }
            ],
            "name": "setApprovalForAll",
            "outputs": [],
            "stateMutability": "nonpayable",
            "type": "function"
        },
        {
            "inputs": [
                {
                    "internalType": "bytes4",
                    "name": "interfaceId",
                    "type": "bytes4"
                }
            ],
            "name": "supportsInterface",
            "outputs": [
                {
                    "internalType": "bool",
                    "name": "",
                    "type": "bool"
                }
            ],
            "stateMutability": "view",
            "type": "function"
        },
        {
            "inputs": [],
            "name": "symbol",
            "outputs": [
                {
                    "internalType": "string",
                    "name": "",
                    "type": "string"
                }
            ],
            "stateMutability": "view",
            "type": "function"
        },
        {
            "inputs": [
                {
                    "internalType": "uint256",
                    "name": "tokenId",
                    "type": "uint256"
                }
            ],
            "name": "tokenURI",
            "outputs": [
                {
                    "internalType": "string",
                    "name": "",
                    "type": "string"
                }
            ],
            "stateMutability": "view",
            "type": "function"
        },
        {
            "inputs": [
                {
                    "internalType": "address",
                    "name": "from",
                    "type": "address"
                },
                {
                    "internalType": "address",
                    "name": "to",
                    "type": "address"
                },
                {
                    "internalType": "uint256",
                    "name": "tokenId",
                    "type": "uint256"
                }
            ],
            "name": "transferFrom",
            "outputs": [],
            "stateMutability": "nonpayable",
            "type": "function"
        }
    ],
    "bytecode": "0x608060405260405180610160016040528061012f815260200162004b7061012f9139600890805190602001906200003892919062000cba565b50604051806101e001604052806040518060400160405280600481526020017f73616c740000000000000000000000000000000000000000000000000000000081525081526020016040518060400160405280600e81526020017f736561736f6e696e672d6375626500000000000000000000000000000000000081525081526020016040518060400160405280600881526020017f637261796669736800000000000000000000000000000000000000000000000081525081526020016040518060400160405280600681526020017f706570706572000000000000000000000000000000000000000000000000000081525081526020016040518060400160405280600981526020017f746f6d6d61746f6573000000000000000000000000000000000000000000000081525081526020016040518060400160405280600581526020017f6f6e696f6e00000000000000000000000000000000000000000000000000000081525081526020016040518060400160405280600a81526020017f66726573682d666973680000000000000000000000000000000000000000000081525081526020016040518060400160405280600a81526020017f766567657461626c65730000000000000000000000000000000000000000000081525081526020016040518060400160405280600481526020017f73656d6f0000000000000000000000000000000000000000000000000000000081525081526020016040518060400160405280600481526020017f706f6d6f0000000000000000000000000000000000000000000000000000000081525081526020016040518060400160405280600a81526020017f73746f636b2d666973680000000000000000000000000000000000000000000081525081526020016040518060400160405280600881526020017f70616c6d2d6f696c00000000000000000000000000000000000000000000000081525081526020016040518060400160405280600a81526020017f64726965642d666973680000000000000000000000000000000000000000000081525081526020016040518060400160405280600881526020017f6173736f7274656400000000000000000000000000000000000000000000000081525081526020016040518060400160405280600581526020017f6f67697269000000000000000000000000000000000000000000000000000000815250815250600990600f620003ca92919062000d4b565b50604051806101e001604052806040518060400160405280600881526020017f63756363756d626100000000000000000000000000000000000000000000000081525081526020016040518060400160405280600581526020017f6d616e676f00000000000000000000000000000000000000000000000000000081525081526020016040518060400160405280600781526020017f61766f6361646f0000000000000000000000000000000000000000000000000081525081526020016040518060400160405280600981526020017f70656e656170706c65000000000000000000000000000000000000000000000081525081526020016040518060400160405280600781526020017f62616e616e61730000000000000000000000000000000000000000000000000081525081526020016040518060400160405280600a81526020017f626c61636b62657272790000000000000000000000000000000000000000000081525081526020016040518060400160405280600a81526020017f737472617762657272790000000000000000000000000000000000000000000081525081526020016040518060400160405280600481526020017f6b6977690000000000000000000000000000000000000000000000000000000081525081526020016040518060400160405280600581526020017f6c656d6f6e00000000000000000000000000000000000000000000000000000081525081526020016040518060400160405280600681526020017f636172726f74000000000000000000000000000000000000000000000000000081525081526020016040518060400160405280600781526020017f736f7572736f700000000000000000000000000000000000000000000000000081525081526020016040518060400160405280600681526020017f706177706177000000000000000000000000000000000000000000000000000081525081526020016040518060400160405280600581526020017f706561727300000000000000000000000000000000000000000000000000000081525081526020016040518060400160405280600581526020017f6170706c6500000000000000000000000000000000000000000000000000000081525081526020016040518060400160405280600681526020017f6f72616e67650000000000000000000000000000000000000000000000000000815250815250600a90600f6200075c92919062000d4b565b50604051806101e001604052806040518060400160405280600381526020017f646f67000000000000000000000000000000000000000000000000000000000081525081526020016040518060400160405280600681526020017f6d6f6e6b6579000000000000000000000000000000000000000000000000000081525081526020016040518060400160405280600581526020017f676572616600000000000000000000000000000000000000000000000000000081525081526020016040518060400160405280600581526020017f7a6562726100000000000000000000000000000000000000000000000000000081525081526020016040518060400160405280600681526020017f636865746168000000000000000000000000000000000000000000000000000081525081526020016040518060400160405280600781526020017f616e74656c6f700000000000000000000000000000000000000000000000000081525081526020016040518060400160405280600781526020017f7363757272656c0000000000000000000000000000000000000000000000000081525081526020016040518060400160405280600c81526020017f686970706f706f74616d7573000000000000000000000000000000000000000081525081526020016040518060400160405280600381526020017f706967000000000000000000000000000000000000000000000000000000000081525081526020016040518060400160405280600581526020017f736865657000000000000000000000000000000000000000000000000000000081525081526020016040518060400160405280600381526020017f636f77000000000000000000000000000000000000000000000000000000000081525081526020016040518060400160405280600481526020017f676f61740000000000000000000000000000000000000000000000000000000081525081526020016040518060400160405280600881526020017f656c697068616e7400000000000000000000000000000000000000000000000081525081526020016040518060400160405280600581526020017f746967657200000000000000000000000000000000000000000000000000000081525081526020016040518060400160405280600481526020017f6c696f6e00000000000000000000000000000000000000000000000000000000815250815250600b90600f62000aee92919062000d4b565b5034801562000afc57600080fd5b506040518060400160405280600a81526020017f4d69636879546f6b656e000000000000000000000000000000000000000000008152506040518060400160405280600381526020017f4d544b0000000000000000000000000000000000000000000000000000000000815250816000908051906020019062000b8192919062000cba565b50806001908051906020019062000b9a92919062000cba565b50505062000be86040518060400160405280601881526020017f4865792c2074686973206973204d696368792773206e6674000000000000000081525062000bee60201b620011391760201c565b62000f6c565b62000c8e8160405160240162000c05919062000e80565b6040516020818303038152906040527f41304fac000000000000000000000000000000000000000000000000000000007bffffffffffffffffffffffffffffffffffffffffffffffffffffffff19166020820180517bffffffffffffffffffffffffffffffffffffffffffffffffffffffff838183161783525050505062000c9160201b60201c565b50565b60008151905060006a636f6e736f6c652e6c6f679050602083016000808483855afa5050505050565b82805462000cc89062000ef6565b90600052602060002090601f01602090048101928262000cec576000855562000d38565b82601f1062000d0757805160ff191683800117855562000d38565b8280016001018555821562000d38579182015b8281111562000d3757825182559160200191906001019062000d1a565b5b50905062000d47919062000db2565b5090565b82805482825590600052602060002090810192821562000d9f579160200282015b8281111562000d9e57825182908051906020019062000d8d92919062000cba565b509160200191906001019062000d6c565b5b50905062000dae919062000dd1565b5090565b5b8082111562000dcd57600081600090555060010162000db3565b5090565b5b8082111562000df5576000818162000deb919062000df9565b5060010162000dd2565b5090565b50805462000e079062000ef6565b6000825580601f1062000e1b575062000e3c565b601f01602090049060005260206000209081019062000e3b919062000db2565b5b50565b600062000e4c8262000ea4565b62000e58818562000eaf565b935062000e6a81856020860162000ec0565b62000e758162000f5b565b840191505092915050565b6000602082019050818103600083015262000e9c818462000e3f565b905092915050565b600081519050919050565b600082825260208201905092915050565b60005b8381101562000ee057808201518184015260208101905062000ec3565b8381111562000ef0576000848401525b50505050565b6000600282049050600182168062000f0f57607f821691505b6020821081141562000f265762000f2562000f2c565b5b50919050565b7f4e487b7100000000000000000000000000000000000000000000000000000000600052602260045260246000fd5b6000601f19601f8301169050919050565b613bf48062000f7c6000396000f3fe608060405234801561001057600080fd5b506004361061010b5760003560e01c80636352211e116100a2578063b88d4fde11610071578063b88d4fde146102dc578063c2819087146102f8578063c87b56dd14610328578063d8cb55e314610358578063e985e9c5146103625761010b565b80636352211e1461024257806370a082311461027257806395d89b41146102a2578063a22cb465146102c05761010b565b80630c2003e1116100de5780630c2003e1146101aa5780631d2793bc146101da57806323b872dd1461020a57806342842e0e146102265761010b565b806301ffc9a71461011057806306fdde0314610140578063081812fc1461015e578063095ea7b31461018e575b600080fd5b61012a60048036038101906101259190612601565b610392565b6040516101379190612dac565b60405180910390f35b610148610474565b6040516101559190612dc7565b60405180910390f35b61017860048036038101906101739190612653565b610506565b6040516101859190612d1c565b60405180910390f35b6101a860048036038101906101a391906125c5565b61058b565b005b6101c460048036038101906101bf9190612653565b6106a3565b6040516101d19190612dc7565b60405180910390f35b6101f460048036038101906101ef9190612653565b6107c1565b6040516102019190612dc7565b60405180910390f35b610224600480360381019061021f91906124bf565b6108df565b005b610240600480360381019061023b91906124bf565b61093f565b005b61025c60048036038101906102579190612653565b61095f565b6040516102699190612d1c565b60405180910390f35b61028c6004803603810190610287919061245a565b610a11565b6040516102999190613057565b60405180910390f35b6102aa610ac9565b6040516102b79190612dc7565b60405180910390f35b6102da60048036038101906102d59190612589565b610b5b565b005b6102f660048036038101906102f1919061250e565b610b71565b005b610312600480360381019061030d9190612653565b610bd3565b60405161031f9190612dc7565b60405180910390f35b610342600480360381019061033d9190612653565b610cf1565b60405161034f9190612dc7565b60405180910390f35b610360610e43565b005b61037c60048036038101906103779190612483565b6110a5565b6040516103899190612dac565b60405180910390f35b60007f80ac58cd000000000000000000000000000000000000000000000000000000007bffffffffffffffffffffffffffffffffffffffffffffffffffffffff1916827bffffffffffffffffffffffffffffffffffffffffffffffffffffffff1916148061045d57507f5b5e139f000000000000000000000000000000000000000000000000000000007bffffffffffffffffffffffffffffffffffffffffffffffffffffffff1916827bffffffffffffffffffffffffffffffffffffffffffffffffffffffff1916145b8061046d575061046c826111d2565b5b9050919050565b606060008054610483906132eb565b80601f01602080910402602001604051908101604052809291908181526020018280546104af906132eb565b80156104fc5780601f106104d1576101008083540402835291602001916104fc565b820191906000526020600020905b8154815290600101906020018083116104df57829003601f168201915b5050505050905090565b60006105118261123c565b610550576040517f08c379a000000000000000000000000000000000000000000000000000000000815260040161054790612fd7565b60405180910390fd5b6004600083815260200190815260200160002060009054906101000a900473ffffffffffffffffffffffffffffffffffffffff169050919050565b60006105968261095f565b90508073ffffffffffffffffffffffffffffffffffffffff168373ffffffffffffffffffffffffffffffffffffffff161415610607576040517f08c379a00000000000000000000000000000000000000000000000000000000081526004016105fe90613017565b60405180910390fd5b8073ffffffffffffffffffffffffffffffffffffffff166106266112a8565b73ffffffffffffffffffffffffffffffffffffffff16148061065557506106548161064f6112a8565b6110a5565b5b610694576040517f08c379a000000000000000000000000000000000000000000000000000000000815260040161068b90612f17565b60405180910390fd5b61069e83836112b0565b505050565b606060006106d76106b384611369565b6040516020016106c39190612c39565b604051602081830303815290604052611516565b9050600a80549050816106ea9190613397565b9050600a8181548110610726577f4e487b7100000000000000000000000000000000000000000000000000000000600052603260045260246000fd5b90600052602060002001805461073b906132eb565b80601f0160208091040260200160405190810160405280929190818152602001828054610767906132eb565b80156107b45780601f10610789576101008083540402835291602001916107b4565b820191906000526020600020905b81548152906001019060200180831161079757829003601f168201915b5050505050915050919050565b606060006107f56107d184611369565b6040516020016107e19190612c5b565b604051602081830303815290604052611516565b9050600b80549050816108089190613397565b9050600b8181548110610844577f4e487b7100000000000000000000000000000000000000000000000000000000600052603260045260246000fd5b906000526020600020018054610859906132eb565b80601f0160208091040260200160405190810160405280929190818152602001828054610885906132eb565b80156108d25780601f106108a7576101008083540402835291602001916108d2565b820191906000526020600020905b8154815290600101906020018083116108b557829003601f168201915b5050505050915050919050565b6108f06108ea6112a8565b82611549565b61092f576040517f08c379a000000000000000000000000000000000000000000000000000000000815260040161092690613037565b60405180910390fd5b61093a838383611627565b505050565b61095a83838360405180602001604052806000815250610b71565b505050565b6000806002600084815260200190815260200160002060009054906101000a900473ffffffffffffffffffffffffffffffffffffffff169050600073ffffffffffffffffffffffffffffffffffffffff168173ffffffffffffffffffffffffffffffffffffffff161415610a08576040517f08c379a00000000000000000000000000000000000000000000000000000000081526004016109ff90612f57565b60405180910390fd5b80915050919050565b60008073ffffffffffffffffffffffffffffffffffffffff168273ffffffffffffffffffffffffffffffffffffffff161415610a82576040517f08c379a0000000000000000000000000000000000000000000000000000000008152600401610a7990612f37565b60405180910390fd5b600360008373ffffffffffffffffffffffffffffffffffffffff1673ffffffffffffffffffffffffffffffffffffffff168152602001908152602001600020549050919050565b606060018054610ad8906132eb565b80601f0160208091040260200160405190810160405280929190818152602001828054610b04906132eb565b8015610b515780601f10610b2657610100808354040283529160200191610b51565b820191906000526020600020905b815481529060010190602001808311610b3457829003601f168201915b5050505050905090565b610b6d610b666112a8565b838361188e565b5050565b610b82610b7c6112a8565b83611549565b610bc1576040517f08c379a0000000000000000000000000000000000000000000000000000000008152600401610bb890613037565b60405180910390fd5b610bcd848484846119fb565b50505050565b60606000610c07610be384611369565b604051602001610bf39190612c7d565b604051602081830303815290604052611516565b905060098054905081610c1a9190613397565b905060098181548110610c56577f4e487b7100000000000000000000000000000000000000000000000000000000600052603260045260246000fd5b906000526020600020018054610c6b906132eb565b80601f0160208091040260200160405190810160405280929190818152602001828054610c97906132eb565b8015610ce45780601f10610cb957610100808354040283529160200191610ce4565b820191906000526020600020905b815481529060010190602001808311610cc757829003601f168201915b5050505050915050919050565b6060610cfc8261123c565b610d3b576040517f08c379a0000000000000000000000000000000000000000000000000000000008152600401610d3290612fb7565b60405180910390fd5b6000600660008481526020019081526020016000208054610d5b906132eb565b80601f0160208091040260200160405190810160405280929190818152602001828054610d87906132eb565b8015610dd45780601f10610da957610100808354040283529160200191610dd4565b820191906000526020600020905b815481529060010190602001808311610db757829003601f168201915b505050505090506000610de5611a57565b9050600081511415610dfb578192505050610e3e565b600082511115610e30578082604051602001610e18929190612b93565b60405160208183030381529060405292505050610e3e565b610e3984611a6e565b925050505b919050565b6000610e4f6007611b15565b90506000610e5c82610bd3565b90506000610e69836106a3565b90506000610e76846107c1565b90506000838383604051602001610e8f93929190612bb7565b60405160208183030381529060405290506000600882604051602001610eb6929190612be8565b60405160208183030381529060405290506000610efb83610ed684611b23565b604051602001610ee7929190612c9f565b604051602081830303815290604052611b23565b9050600081604051602001610f109190612cfa565b6040516020818303038152906040529050610f5f6040518060400160405280601581526020017f0a2d2d2d2d2d2d2d2d2d2d2d2d2d2d2d2d2d2d2d2d0000000000000000000000815250611139565b610f8781604051602001610f739190612c17565b604051602081830303815290604052611139565b610fc56040518060400160405280601581526020017f2d2d2d2d2d2d2d2d2d2d2d2d2d2d2d2d2d2d2d2d0a0000000000000000000000815250611139565b610fcf3389611ce1565b610fd98882611cff565b6110186040518060400160405280601b81526020017f4e465420686173206265656e206d696e74656420746f2025732e2e000000000081525033611d73565b6110226007611e0f565b6110626040518060400160405280601e81526020017f416e206e667420686173206265656e206d696e74656420746f2025732e2e00008152508933611e25565b7f4a6b08d3fbbc883eda9d66e027df2a6accf06ca2f41f29decafce21dad48a0a03389604051611093929190612d83565b60405180910390a15050505050505050565b6000600560008473ffffffffffffffffffffffffffffffffffffffff1673ffffffffffffffffffffffffffffffffffffffff16815260200190815260200160002060008373ffffffffffffffffffffffffffffffffffffffff1673ffffffffffffffffffffffffffffffffffffffff16815260200190815260200160002060009054906101000a900460ff16905092915050565b6111cf8160405160240161114d9190612dc7565b6040516020818303038152906040527f41304fac000000000000000000000000000000000000000000000000000000007bffffffffffffffffffffffffffffffffffffffffffffffffffffffff19166020820180517bffffffffffffffffffffffffffffffffffffffffffffffffffffffff8381831617835250505050611ec4565b50565b60007f01ffc9a7000000000000000000000000000000000000000000000000000000007bffffffffffffffffffffffffffffffffffffffffffffffffffffffff1916827bffffffffffffffffffffffffffffffffffffffffffffffffffffffff1916149050919050565b60008073ffffffffffffffffffffffffffffffffffffffff166002600084815260200190815260200160002060009054906101000a900473ffffffffffffffffffffffffffffffffffffffff1673ffffffffffffffffffffffffffffffffffffffff1614159050919050565b600033905090565b816004600083815260200190815260200160002060006101000a81548173ffffffffffffffffffffffffffffffffffffffff021916908373ffffffffffffffffffffffffffffffffffffffff160217905550808273ffffffffffffffffffffffffffffffffffffffff166113238361095f565b73ffffffffffffffffffffffffffffffffffffffff167f8c5be1e5ebec7d5bd14f71427d1e84f3dd0314c0f7b2291e5b200ac8c7c3b92560405160405180910390a45050565b606060008214156113b1576040518060400160405280600181526020017f30000000000000000000000000000000000000000000000000000000000000008152509050611511565b600082905060005b600082146113e35780806113cc9061334e565b915050600a826113dc9190613176565b91506113b9565b60008167ffffffffffffffff811115611425577f4e487b7100000000000000000000000000000000000000000000000000000000600052604160045260246000fd5b6040519080825280601f01601f1916602001820160405280156114575781602001600182028036833780820191505090505b5090505b6000851461150a576001826114709190613201565b9150600a8561147f9190613397565b603061148b9190613120565b60f81b8183815181106114c7577f4e487b7100000000000000000000000000000000000000000000000000000000600052603260045260246000fd5b60200101907effffffffffffffffffffffffffffffffffffffffffffffffffffffffffffff1916908160001a905350600a856115039190613176565b945061145b565b8093505050505b919050565b6000816040516020016115299190612b7c565b6040516020818303038152906040528051906020012060001c9050919050565b60006115548261123c565b611593576040517f08c379a000000000000000000000000000000000000000000000000000000000815260040161158a90612ef7565b60405180910390fd5b600061159e8361095f565b90508073ffffffffffffffffffffffffffffffffffffffff168473ffffffffffffffffffffffffffffffffffffffff16148061160d57508373ffffffffffffffffffffffffffffffffffffffff166115f584610506565b73ffffffffffffffffffffffffffffffffffffffff16145b8061161e575061161d81856110a5565b5b91505092915050565b8273ffffffffffffffffffffffffffffffffffffffff166116478261095f565b73ffffffffffffffffffffffffffffffffffffffff161461169d576040517f08c379a000000000000000000000000000000000000000000000000000000000815260040161169490612e77565b60405180910390fd5b600073ffffffffffffffffffffffffffffffffffffffff168273ffffffffffffffffffffffffffffffffffffffff16141561170d576040517f08c379a000000000000000000000000000000000000000000000000000000000815260040161170490612eb7565b60405180910390fd5b611718838383611eed565b6117236000826112b0565b6001600360008573ffffffffffffffffffffffffffffffffffffffff1673ffffffffffffffffffffffffffffffffffffffff16815260200190815260200160002060008282546117739190613201565b925050819055506001600360008473ffffffffffffffffffffffffffffffffffffffff1673ffffffffffffffffffffffffffffffffffffffff16815260200190815260200160002060008282546117ca9190613120565b92505081905550816002600083815260200190815260200160002060006101000a81548173ffffffffffffffffffffffffffffffffffffffff021916908373ffffffffffffffffffffffffffffffffffffffff160217905550808273ffffffffffffffffffffffffffffffffffffffff168473ffffffffffffffffffffffffffffffffffffffff167fddf252ad1be2c89b69c2b068fc378daa952ba7f163c4a11628f55a4df523b3ef60405160405180910390a4611889838383611ef2565b505050565b8173ffffffffffffffffffffffffffffffffffffffff168373ffffffffffffffffffffffffffffffffffffffff1614156118fd576040517f08c379a00000000000000000000000000000000000000000000000000000000081526004016118f490612ed7565b60405180910390fd5b80600560008573ffffffffffffffffffffffffffffffffffffffff1673ffffffffffffffffffffffffffffffffffffffff16815260200190815260200160002060008473ffffffffffffffffffffffffffffffffffffffff1673ffffffffffffffffffffffffffffffffffffffff16815260200190815260200160002060006101000a81548160ff0219169083151502179055508173ffffffffffffffffffffffffffffffffffffffff168373ffffffffffffffffffffffffffffffffffffffff167f17307eab39ab6107e8899845ad3d59bd9653f200f220920489ca2b5937696c31836040516119ee9190612dac565b60405180910390a3505050565b611a06848484611627565b611a1284848484611ef7565b611a51576040517f08c379a0000000000000000000000000000000000000000000000000000000008152600401611a4890612e57565b60405180910390fd5b50505050565b606060405180602001604052806000815250905090565b6060611a798261123c565b611ab8576040517f08c379a0000000000000000000000000000000000000000000000000000000008152600401611aaf90612ff7565b60405180910390fd5b6000611ac2611a57565b90506000815111611ae25760405180602001604052806000815250611b0d565b80611aec84611369565b604051602001611afd929190612b93565b6040516020818303038152906040525b915050919050565b600081600001549050919050565b60606000825190506000811415611b4c5760405180602001604052806000815250915050611cdc565b60006003600283611b5d9190613120565b611b679190613176565b6004611b7391906131a7565b90506000602082611b849190613120565b67ffffffffffffffff811115611bc3577f4e487b7100000000000000000000000000000000000000000000000000000000600052604160045260246000fd5b6040519080825280601f01601f191660200182016040528015611bf55781602001600182028036833780820191505090505b5090506000604051806060016040528060408152602001613b7f604091399050600181016020830160005b86811015611c995760038101905062ffffff818a015116603f8160121c168401518060081b905060ff603f83600c1c1686015116810190508060081b905060ff603f8360061c1686015116810190508060081b905060ff603f831686015116810190508060e01b90508084526004840193505050611c20565b506003860660018114611cb35760028114611cc357611cce565b613d3d60f01b6002830352611cce565b603d60f81b60018303525b508484525050819450505050505b919050565b611cfb82826040518060200160405280600081525061208e565b5050565b611d088261123c565b611d47576040517f08c379a0000000000000000000000000000000000000000000000000000000008152600401611d3e90612f77565b60405180910390fd5b80600660008481526020019081526020016000209080519060200190611d6e9291906122e6565b505050565b611e0b8282604051602401611d89929190612de9565b6040516020818303038152906040527f319af333000000000000000000000000000000000000000000000000000000007bffffffffffffffffffffffffffffffffffffffffffffffffffffffff19166020820180517bffffffffffffffffffffffffffffffffffffffffffffffffffffffff8381831617835250505050611ec4565b5050565b6001816000016000828254019250508190555050565b611ebf838383604051602401611e3d93929190612e19565b6040516020818303038152906040527fe3849f79000000000000000000000000000000000000000000000000000000007bffffffffffffffffffffffffffffffffffffffffffffffffffffffff19166020820180517bffffffffffffffffffffffffffffffffffffffffffffffffffffffff8381831617835250505050611ec4565b505050565b60008151905060006a636f6e736f6c652e6c6f679050602083016000808483855afa5050505050565b505050565b505050565b6000611f188473ffffffffffffffffffffffffffffffffffffffff166120e9565b15612081578373ffffffffffffffffffffffffffffffffffffffff1663150b7a02611f416112a8565b8786866040518563ffffffff1660e01b8152600401611f639493929190612d37565b602060405180830381600087803b158015611f7d57600080fd5b505af1925050508015611fae57506040513d601f19601f82011682018060405250810190611fab919061262a565b60015b612031573d8060008114611fde576040519150601f19603f3d011682016040523d82523d6000602084013e611fe3565b606091505b50600081511415612029576040517f08c379a000000000000000000000000000000000000000000000000000000000815260040161202090612e57565b60405180910390fd5b805181602001fd5b63150b7a0260e01b7bffffffffffffffffffffffffffffffffffffffffffffffffffffffff1916817bffffffffffffffffffffffffffffffffffffffffffffffffffffffff191614915050612086565b600190505b949350505050565b612098838361210c565b6120a56000848484611ef7565b6120e4576040517f08c379a00000000000000000000000000000000000000000000000000000000081526004016120db90612e57565b60405180910390fd5b505050565b6000808273ffffffffffffffffffffffffffffffffffffffff163b119050919050565b600073ffffffffffffffffffffffffffffffffffffffff168273ffffffffffffffffffffffffffffffffffffffff16141561217c576040517f08c379a000000000000000000000000000000000000000000000000000000000815260040161217390612f97565b60405180910390fd5b6121858161123c565b156121c5576040517f08c379a00000000000000000000000000000000000000000000000000000000081526004016121bc90612e97565b60405180910390fd5b6121d160008383611eed565b6001600360008473ffffffffffffffffffffffffffffffffffffffff1673ffffffffffffffffffffffffffffffffffffffff16815260200190815260200160002060008282546122219190613120565b92505081905550816002600083815260200190815260200160002060006101000a81548173ffffffffffffffffffffffffffffffffffffffff021916908373ffffffffffffffffffffffffffffffffffffffff160217905550808273ffffffffffffffffffffffffffffffffffffffff16600073ffffffffffffffffffffffffffffffffffffffff167fddf252ad1be2c89b69c2b068fc378daa952ba7f163c4a11628f55a4df523b3ef60405160405180910390a46122e260008383611ef2565b5050565b8280546122f2906132eb565b90600052602060002090601f016020900481019282612314576000855561235b565b82601f1061232d57805160ff191683800117855561235b565b8280016001018555821561235b579182015b8281111561235a57825182559160200191906001019061233f565b5b509050612368919061236c565b5090565b5b8082111561238557600081600090555060010161236d565b5090565b600061239c61239784613097565b613072565b9050828152602081018484840111156123b457600080fd5b6123bf8482856132a9565b509392505050565b6000813590506123d681613b22565b92915050565b6000813590506123eb81613b39565b92915050565b60008135905061240081613b50565b92915050565b60008151905061241581613b50565b92915050565b600082601f83011261242c57600080fd5b813561243c848260208601612389565b91505092915050565b60008135905061245481613b67565b92915050565b60006020828403121561246c57600080fd5b600061247a848285016123c7565b91505092915050565b6000806040838503121561249657600080fd5b60006124a4858286016123c7565b92505060206124b5858286016123c7565b9150509250929050565b6000806000606084860312156124d457600080fd5b60006124e2868287016123c7565b93505060206124f3868287016123c7565b925050604061250486828701612445565b9150509250925092565b6000806000806080858703121561252457600080fd5b6000612532878288016123c7565b9450506020612543878288016123c7565b935050604061255487828801612445565b925050606085013567ffffffffffffffff81111561257157600080fd5b61257d8782880161241b565b91505092959194509250565b6000806040838503121561259c57600080fd5b60006125aa858286016123c7565b92505060206125bb858286016123dc565b9150509250929050565b600080604083850312156125d857600080fd5b60006125e6858286016123c7565b92505060206125f785828601612445565b9150509250929050565b60006020828403121561261357600080fd5b6000612621848285016123f1565b91505092915050565b60006020828403121561263c57600080fd5b600061264a84828501612406565b91505092915050565b60006020828403121561266557600080fd5b600061267384828501612445565b91505092915050565b61268581613235565b82525050565b61269481613247565b82525050565b60006126a5826130dd565b6126af81856130f3565b93506126bf8185602086016132b8565b6126c881613484565b840191505092915050565b60006126de826130e8565b6126e88185613104565b93506126f88185602086016132b8565b61270181613484565b840191505092915050565b6000612717826130e8565b6127218185613115565b93506127318185602086016132b8565b80840191505092915050565b6000815461274a816132eb565b6127548186613115565b9450600182166000811461276f5760018114612780576127b3565b60ff198316865281860193506127b3565b612789856130c8565b60005b838110156127ab5781548189015260018201915060208101905061278c565b838801955050505b50505092915050565b60006127c9602583613115565b91506127d482613495565b602582019050919050565b60006127ec600883613115565b91506127f7826134e4565b600882019050919050565b600061280f603283613104565b915061281a8261350d565b604082019050919050565b6000612832602583613104565b915061283d8261355c565b604082019050919050565b6000612855601c83613104565b9150612860826135ab565b602082019050919050565b6000612878602183613115565b9150612883826135d4565b602182019050919050565b600061289b600383613115565b91506128a682613623565b600382019050919050565b60006128be602483613104565b91506128c98261364c565b604082019050919050565b60006128e1601983613104565b91506128ec8261369b565b602082019050919050565b6000612904602c83613104565b915061290f826136c4565b604082019050919050565b6000612927600d83613115565b915061293282613713565b600d82019050919050565b600061294a603883613104565b91506129558261373c565b604082019050919050565b600061296d602a83613104565b91506129788261378b565b604082019050919050565b6000612990602983613104565b915061299b826137da565b604082019050919050565b60006129b3602e83613104565b91506129be82613829565b604082019050919050565b60006129d6600283613115565b91506129e182613878565b600282019050919050565b60006129f9602083613104565b9150612a04826138a1565b602082019050919050565b6000612a1c603183613104565b9150612a27826138ca565b604082019050919050565b6000612a3f602c83613104565b9150612a4a82613919565b604082019050919050565b6000612a62600483613115565b9150612a6d82613968565b600482019050919050565b6000612a85602f83613104565b9150612a9082613991565b604082019050919050565b6000612aa8600a83613115565b9150612ab3826139e0565b600a82019050919050565b6000612acb602183613104565b9150612ad682613a09565b604082019050919050565b6000612aee601d83613115565b9150612af982613a58565b601d82019050919050565b6000612b11600083613115565b9150612b1c82613a81565b600082019050919050565b6000612b34603183613104565b9150612b3f82613a84565b604082019050919050565b6000612b57602583613115565b9150612b6282613ad3565b602582019050919050565b612b768161329f565b82525050565b6000612b88828461270c565b915081905092915050565b6000612b9f828561270c565b9150612bab828461270c565b91508190509392505050565b6000612bc3828661270c565b9150612bcf828561270c565b9150612bdb828461270c565b9150819050949350505050565b6000612bf4828561273d565b9150612c00828461270c565b9150612c0b8261291a565b91508190509392505050565b6000612c22826127bc565b9150612c2e828461270c565b915081905092915050565b6000612c44826127df565b9150612c50828461270c565b915081905092915050565b6000612c668261288e565b9150612c72828461270c565b915081905092915050565b6000612c8882612a55565b9150612c94828461270c565b915081905092915050565b6000612caa82612a9b565b9150612cb6828561270c565b9150612cc182612b04565b9150612ccc82612b4a565b9150612cd78261286b565b9150612ce3828461270c565b9150612cee826129c9565b91508190509392505050565b6000612d0582612ae1565b9150612d11828461270c565b915081905092915050565b6000602082019050612d31600083018461267c565b92915050565b6000608082019050612d4c600083018761267c565b612d59602083018661267c565b612d666040830185612b6d565b8181036060830152612d78818461269a565b905095945050505050565b6000604082019050612d98600083018561267c565b612da56020830184612b6d565b9392505050565b6000602082019050612dc1600083018461268b565b92915050565b60006020820190508181036000830152612de181846126d3565b905092915050565b60006040820190508181036000830152612e0381856126d3565b9050612e12602083018461267c565b9392505050565b60006060820190508181036000830152612e3381866126d3565b9050612e426020830185612b6d565b612e4f604083018461267c565b949350505050565b60006020820190508181036000830152612e7081612802565b9050919050565b60006020820190508181036000830152612e9081612825565b9050919050565b60006020820190508181036000830152612eb081612848565b9050919050565b60006020820190508181036000830152612ed0816128b1565b9050919050565b60006020820190508181036000830152612ef0816128d4565b9050919050565b60006020820190508181036000830152612f10816128f7565b9050919050565b60006020820190508181036000830152612f308161293d565b9050919050565b60006020820190508181036000830152612f5081612960565b9050919050565b60006020820190508181036000830152612f7081612983565b9050919050565b60006020820190508181036000830152612f90816129a6565b9050919050565b60006020820190508181036000830152612fb0816129ec565b9050919050565b60006020820190508181036000830152612fd081612a0f565b9050919050565b60006020820190508181036000830152612ff081612a32565b9050919050565b6000602082019050818103600083015261301081612a78565b9050919050565b6000602082019050818103600083015261303081612abe565b9050919050565b6000602082019050818103600083015261305081612b27565b9050919050565b600060208201905061306c6000830184612b6d565b92915050565b600061307c61308d565b9050613088828261331d565b919050565b6000604051905090565b600067ffffffffffffffff8211156130b2576130b1613455565b5b6130bb82613484565b9050602081019050919050565b60008190508160005260206000209050919050565b600081519050919050565b600081519050919050565b600082825260208201905092915050565b600082825260208201905092915050565b600081905092915050565b600061312b8261329f565b91506131368361329f565b9250827fffffffffffffffffffffffffffffffffffffffffffffffffffffffffffffffff0382111561316b5761316a6133c8565b5b828201905092915050565b60006131818261329f565b915061318c8361329f565b92508261319c5761319b6133f7565b5b828204905092915050565b60006131b28261329f565b91506131bd8361329f565b9250817fffffffffffffffffffffffffffffffffffffffffffffffffffffffffffffffff04831182151516156131f6576131f56133c8565b5b828202905092915050565b600061320c8261329f565b91506132178361329f565b92508282101561322a576132296133c8565b5b828203905092915050565b60006132408261327f565b9050919050565b60008115159050919050565b60007fffffffff0000000000000000000000000000000000000000000000000000000082169050919050565b600073ffffffffffffffffffffffffffffffffffffffff82169050919050565b6000819050919050565b82818337600083830152505050565b60005b838110156132d65780820151818401526020810190506132bb565b838111156132e5576000848401525b50505050565b6000600282049050600182168061330357607f821691505b6020821081141561331757613316613426565b5b50919050565b61332682613484565b810181811067ffffffffffffffff8211171561334557613344613455565b5b80604052505050565b60006133598261329f565b91507fffffffffffffffffffffffffffffffffffffffffffffffffffffffffffffffff82141561338c5761338b6133c8565b5b600182019050919050565b60006133a28261329f565b91506133ad8361329f565b9250826133bd576133bc6133f7565b5b828206905092915050565b7f4e487b7100000000000000000000000000000000000000000000000000000000600052601160045260246000fd5b7f4e487b7100000000000000000000000000000000000000000000000000000000600052601260045260246000fd5b7f4e487b7100000000000000000000000000000000000000000000000000000000600052602260045260246000fd5b7f4e487b7100000000000000000000000000000000000000000000000000000000600052604160045260246000fd5b6000601f19601f8301169050919050565b7f68747470733a2f2f6e6674707265766965772e30786465762e636f6465732f3f60008201527f636f64653d000000000000000000000000000000000000000000000000000000602082015250565b7f63756363756d6261000000000000000000000000000000000000000000000000600082015250565b7f4552433732313a207472616e7366657220746f206e6f6e20455243373231526560008201527f63656976657220696d706c656d656e7465720000000000000000000000000000602082015250565b7f4552433732313a207472616e736665722066726f6d20696e636f72726563742060008201527f6f776e6572000000000000000000000000000000000000000000000000000000602082015250565b7f4552433732313a20746f6b656e20616c7265616479206d696e74656400000000600082015250565b7f696d6167653a646174613a696d6167652f7376672b786d6c3b6261736536342c60008201527f2700000000000000000000000000000000000000000000000000000000000000602082015250565b7f646f670000000000000000000000000000000000000000000000000000000000600082015250565b7f4552433732313a207472616e7366657220746f20746865207a65726f2061646460008201527f7265737300000000000000000000000000000000000000000000000000000000602082015250565b7f4552433732313a20617070726f766520746f2063616c6c657200000000000000600082015250565b7f4552433732313a206f70657261746f7220717565727920666f72206e6f6e657860008201527f697374656e7420746f6b656e0000000000000000000000000000000000000000602082015250565b7f3c2f746578743e3c2f7376673e00000000000000000000000000000000000000600082015250565b7f4552433732313a20617070726f76652063616c6c6572206973206e6f74206f7760008201527f6e6572206e6f7220617070726f76656420666f7220616c6c0000000000000000602082015250565b7f4552433732313a2062616c616e636520717565727920666f7220746865207a6560008201527f726f206164647265737300000000000000000000000000000000000000000000602082015250565b7f4552433732313a206f776e657220717565727920666f72206e6f6e657869737460008201527f656e7420746f6b656e0000000000000000000000000000000000000000000000602082015250565b7f45524337323155524953746f726167653a2055524920736574206f66206e6f6e60008201527f6578697374656e7420746f6b656e000000000000000000000000000000000000602082015250565b7f227d000000000000000000000000000000000000000000000000000000000000600082015250565b7f4552433732313a206d696e7420746f20746865207a65726f2061646472657373600082015250565b7f45524337323155524953746f726167653a2055524920717565727920666f722060008201527f6e6f6e6578697374656e7420746f6b656e000000000000000000000000000000602082015250565b7f4552433732313a20617070726f76656420717565727920666f72206e6f6e657860008201527f697374656e7420746f6b656e0000000000000000000000000000000000000000602082015250565b7f73616c7400000000000000000000000000000000000000000000000000000000600082015250565b7f4552433732314d657461646174613a2055524920717565727920666f72206e6f60008201527f6e6578697374656e7420746f6b656e0000000000000000000000000000000000602082015250565b7f7b226e616d65223a202200000000000000000000000000000000000000000000600082015250565b7f4552433732313a20617070726f76616c20746f2063757272656e74206f776e6560008201527f7200000000000000000000000000000000000000000000000000000000000000602082015250565b7f646174613a6170706c69636174696f6e2f6a736f6e3b6261736536342c000000600082015250565b50565b7f4552433732313a207472616e736665722063616c6c6572206973206e6f74206f60008201527f776e6572206e6f7220617070726f766564000000000000000000000000000000602082015250565b7f6465736372697074696f6e3a4120686967686c79206163636c61696d6564206d60008201527f656d65732e000000000000000000000000000000000000000000000000000000602082015250565b613b2b81613235565b8114613b3657600080fd5b50565b613b4281613247565b8114613b4d57600080fd5b50565b613b5981613253565b8114613b6457600080fd5b50565b613b708161329f565b8114613b7b57600080fd5b5056fe4142434445464748494a4b4c4d4e4f505152535455565758595a6162636465666768696a6b6c6d6e6f707172737475767778797a303132333435363738392b2fa2646970667358221220631443a250ba097113d1cc6f53ccd40b40ea08b97259643ad0662baf0d149bed64736f6c634300080100333c73766720786d6c6e733d27687474703a2f2f7777772e77332e6f72672f323030302f73766727207072657365727665417370656374526174696f3d27784d696e594d696e206d656574272076696577426f783d273020302033353020333530273e3c7374796c653e2e62617365207b2066696c6c3a2077686974653b20666f6e742d66616d696c793a2073657269663b20666f6e742d73697a653a20323470783b207d3c2f7374796c653e3c726563742077696474683d273130302527206865696768743d2731303025272066696c6c3d27626c61636b27202f3e3c7465787420783d273530252720793d273530252720636c6173733d27626173652720646f6d696e616e742d626173656c696e653d276d6964646c652720746578742d616e63686f723d276d6964646c65273e",
    "linkReferences": {},
    "deployedLinkReferences": {}
}