{
  "_format": "hh-sol-artifact-1",
  "contractName": "MichyNft",
  "sourceName": "contracts/nftToken.sol",
  "abi": [
    {
      "inputs": [],
      "stateMutability": "nonpayable",
      "type": "constructor"
    },
    {
      "anonymous": false,
      "inputs": [
        {
          "indexed": true,
          "internalType": "address",
          "name": "owner",
          "type": "address"
        },
        {
          "indexed": true,
          "internalType": "address",
          "name": "approved",
          "type": "address"
        },
        {
          "indexed": true,
          "internalType": "uint256",
          "name": "tokenId",
          "type": "uint256"
        }
      ],
      "name": "Approval",
      "type": "event"
    },
    {
      "anonymous": false,
      "inputs": [
        {
          "indexed": true,
          "internalType": "address",
          "name": "owner",
          "type": "address"
        },
        {
          "indexed": true,
          "internalType": "address",
          "name": "operator",
          "type": "address"
        },
        {
          "indexed": false,
          "internalType": "bool",
          "name": "approved",
          "type": "bool"
        }
      ],
      "name": "ApprovalForAll",
      "type": "event"
    },
    {
      "anonymous": false,
      "inputs": [
        {
          "indexed": false,
          "internalType": "address",
          "name": "sender",
          "type": "address"
        },
        {
          "indexed": false,
          "internalType": "uint256",
          "name": "tokenId",
          "type": "uint256"
        }
      ],
      "name": "NewMichyNftMinted",
      "type": "event"
    },
    {
      "anonymous": false,
      "inputs": [
        {
          "indexed": true,
          "internalType": "address",
          "name": "from",
          "type": "address"
        },
        {
          "indexed": true,
          "internalType": "address",
          "name": "to",
          "type": "address"
        },
        {
          "indexed": true,
          "internalType": "uint256",
          "name": "tokenId",
          "type": "uint256"
        }
      ],
      "name": "Transfer",
      "type": "event"
    },
    {
      "inputs": [
        {
          "internalType": "address",
          "name": "to",
          "type": "address"
        },
        {
          "internalType": "uint256",
          "name": "tokenId",
          "type": "uint256"
        }
      ],
      "name": "approve",
      "outputs": [],
      "stateMutability": "nonpayable",
      "type": "function"
    },
    {
      "inputs": [
        {
          "internalType": "address",
          "name": "owner",
          "type": "address"
        }
      ],
      "name": "balanceOf",
      "outputs": [
        {
          "internalType": "uint256",
          "name": "",
          "type": "uint256"
        }
      ],
      "stateMutability": "view",
      "type": "function"
    },
    {
      "inputs": [
        {
          "internalType": "uint256",
          "name": "tokenId",
          "type": "uint256"
        }
      ],
      "name": "getApproved",
      "outputs": [
        {
          "internalType": "address",
          "name": "",
          "type": "address"
        }
      ],
      "stateMutability": "view",
      "type": "function"
    },
    {
      "inputs": [],
      "name": "getNfts",
      "outputs": [],
      "stateMutability": "nonpayable",
      "type": "function"
    },
    {
      "inputs": [
        {
          "internalType": "uint256",
          "name": "tokenId",
          "type": "uint256"
        }
      ],
      "name": "getRandomAnimals",
      "outputs": [
        {
          "internalType": "string",
          "name": "",
          "type": "string"
        }
      ],
      "stateMutability": "view",
      "type": "function"
    },
    {
      "inputs": [
        {
          "internalType": "uint256",
          "name": "tokenId",
          "type": "uint256"
        }
      ],
      "name": "getRandomColors",
      "outputs": [
        {
          "internalType": "string",
          "name": "",
          "type": "string"
        }
      ],
      "stateMutability": "view",
      "type": "function"
    },
    {
      "inputs": [
        {
          "internalType": "uint256",
          "name": "tokenId",
          "type": "uint256"
        }
      ],
      "name": "getRandomFoodItem",
      "outputs": [
        {
          "internalType": "string",
          "name": "",
          "type": "string"
        }
      ],
      "stateMutability": "view",
      "type": "function"
    },
    {
      "inputs": [
        {
          "internalType": "uint256",
          "name": "tokenId",
          "type": "uint256"
        }
      ],
      "name": "getRandomFruits",
      "outputs": [
        {
          "internalType": "string",
          "name": "",
          "type": "string"
        }
      ],
      "stateMutability": "view",
      "type": "function"
    },
    {
      "inputs": [
        {
          "internalType": "address",
          "name": "owner",
          "type": "address"
        },
        {
          "internalType": "address",
          "name": "operator",
          "type": "address"
        }
      ],
      "name": "isApprovedForAll",
      "outputs": [
        {
          "internalType": "bool",
          "name": "",
          "type": "bool"
        }
      ],
      "stateMutability": "view",
      "type": "function"
    },
    {
      "inputs": [],
      "name": "name",
      "outputs": [
        {
          "internalType": "string",
          "name": "",
          "type": "string"
        }
      ],
      "stateMutability": "view",
      "type": "function"
    },
    {
      "inputs": [
        {
          "internalType": "uint256",
          "name": "tokenId",
          "type": "uint256"
        }
      ],
      "name": "ownerOf",
      "outputs": [
        {
          "internalType": "address",
          "name": "",
          "type": "address"
        }
      ],
      "stateMutability": "view",
      "type": "function"
    },
    {
      "inputs": [
        {
          "internalType": "address",
          "name": "from",
          "type": "address"
        },
        {
          "internalType": "address",
          "name": "to",
          "type": "address"
        },
        {
          "internalType": "uint256",
          "name": "tokenId",
          "type": "uint256"
        }
      ],
      "name": "safeTransferFrom",
      "outputs": [],
      "stateMutability": "nonpayable",
      "type": "function"
    },
    {
      "inputs": [
        {
          "internalType": "address",
          "name": "from",
          "type": "address"
        },
        {
          "internalType": "address",
          "name": "to",
          "type": "address"
        },
        {
          "internalType": "uint256",
          "name": "tokenId",
          "type": "uint256"
        },
        {
          "internalType": "bytes",
          "name": "_data",
          "type": "bytes"
        }
      ],
      "name": "safeTransferFrom",
      "outputs": [],
      "stateMutability": "nonpayable",
      "type": "function"
    },
    {
      "inputs": [
        {
          "internalType": "address",
          "name": "operator",
          "type": "address"
        },
        {
          "internalType": "bool",
          "name": "approved",
          "type": "bool"
        }
      ],
      "name": "setApprovalForAll",
      "outputs": [],
      "stateMutability": "nonpayable",
      "type": "function"
    },
    {
      "inputs": [
        {
          "internalType": "bytes4",
          "name": "interfaceId",
          "type": "bytes4"
        }
      ],
      "name": "supportsInterface",
      "outputs": [
        {
          "internalType": "bool",
          "name": "",
          "type": "bool"
        }
      ],
      "stateMutability": "view",
      "type": "function"
    },
    {
      "inputs": [],
      "name": "symbol",
      "outputs": [
        {
          "internalType": "string",
          "name": "",
          "type": "string"
        }
      ],
      "stateMutability": "view",
      "type": "function"
    },
    {
      "inputs": [
        {
          "internalType": "uint256",
          "name": "tokenId",
          "type": "uint256"
        }
      ],
      "name": "tokenURI",
      "outputs": [
        {
          "internalType": "string",
          "name": "",
          "type": "string"
        }
      ],
      "stateMutability": "view",
      "type": "function"
    },
    {
      "inputs": [
        {
          "internalType": "address",
          "name": "from",
          "type": "address"
        },
        {
          "internalType": "address",
          "name": "to",
          "type": "address"
        },
        {
          "internalType": "uint256",
          "name": "tokenId",
          "type": "uint256"
        }
      ],
      "name": "transferFrom",
      "outputs": [],
      "stateMutability": "nonpayable",
      "type": "function"
    }
  ],
  "bytecode": "0x608060405260405180610160016040528061012f81526020016200516661012f9139600890805190602001906200003892919062001008565b506040518060800160405280605681526020016200529560569139600990805190602001906200006a92919062001008565b50604051806101e001604052806040518060400160405280600481526020017f73616c740000000000000000000000000000000000000000000000000000000081525081526020016040518060400160405280600e81526020017f736561736f6e696e672d6375626500000000000000000000000000000000000081525081526020016040518060400160405280600881526020017f637261796669736800000000000000000000000000000000000000000000000081525081526020016040518060400160405280600681526020017f706570706572000000000000000000000000000000000000000000000000000081525081526020016040518060400160405280600981526020017f746f6d6d61746f6573000000000000000000000000000000000000000000000081525081526020016040518060400160405280600581526020017f6f6e696f6e00000000000000000000000000000000000000000000000000000081525081526020016040518060400160405280600a81526020017f66726573682d666973680000000000000000000000000000000000000000000081525081526020016040518060400160405280600a81526020017f766567657461626c65730000000000000000000000000000000000000000000081525081526020016040518060400160405280600481526020017f73656d6f0000000000000000000000000000000000000000000000000000000081525081526020016040518060400160405280600481526020017f706f6d6f0000000000000000000000000000000000000000000000000000000081525081526020016040518060400160405280600a81526020017f73746f636b2d666973680000000000000000000000000000000000000000000081525081526020016040518060400160405280600881526020017f70616c6d2d6f696c00000000000000000000000000000000000000000000000081525081526020016040518060400160405280600a81526020017f64726965642d666973680000000000000000000000000000000000000000000081525081526020016040518060400160405280600881526020017f6173736f7274656400000000000000000000000000000000000000000000000081525081526020016040518060400160405280600581526020017f6f67697269000000000000000000000000000000000000000000000000000000815250815250600a90600f620003fc92919062001099565b50604051806101e001604052806040518060400160405280600881526020017f63756363756d626100000000000000000000000000000000000000000000000081525081526020016040518060400160405280600581526020017f6d616e676f00000000000000000000000000000000000000000000000000000081525081526020016040518060400160405280600781526020017f61766f6361646f0000000000000000000000000000000000000000000000000081525081526020016040518060400160405280600981526020017f70656e656170706c65000000000000000000000000000000000000000000000081525081526020016040518060400160405280600781526020017f62616e616e61730000000000000000000000000000000000000000000000000081525081526020016040518060400160405280600a81526020017f626c61636b62657272790000000000000000000000000000000000000000000081525081526020016040518060400160405280600a81526020017f737472617762657272790000000000000000000000000000000000000000000081525081526020016040518060400160405280600481526020017f6b6977690000000000000000000000000000000000000000000000000000000081525081526020016040518060400160405280600581526020017f6c656d6f6e00000000000000000000000000000000000000000000000000000081525081526020016040518060400160405280600681526020017f636172726f74000000000000000000000000000000000000000000000000000081525081526020016040518060400160405280600781526020017f736f7572736f700000000000000000000000000000000000000000000000000081525081526020016040518060400160405280600681526020017f706177706177000000000000000000000000000000000000000000000000000081525081526020016040518060400160405280600581526020017f706561727300000000000000000000000000000000000000000000000000000081525081526020016040518060400160405280600581526020017f6170706c6500000000000000000000000000000000000000000000000000000081525081526020016040518060400160405280600681526020017f6f72616e67650000000000000000000000000000000000000000000000000000815250815250600b90600f6200078e92919062001099565b50604051806101e001604052806040518060400160405280600381526020017f646f67000000000000000000000000000000000000000000000000000000000081525081526020016040518060400160405280600681526020017f6d6f6e6b6579000000000000000000000000000000000000000000000000000081525081526020016040518060400160405280600581526020017f676572616600000000000000000000000000000000000000000000000000000081525081526020016040518060400160405280600581526020017f7a6562726100000000000000000000000000000000000000000000000000000081525081526020016040518060400160405280600681526020017f636865746168000000000000000000000000000000000000000000000000000081525081526020016040518060400160405280600781526020017f616e74656c6f700000000000000000000000000000000000000000000000000081525081526020016040518060400160405280600781526020017f7363757272656c0000000000000000000000000000000000000000000000000081525081526020016040518060400160405280600c81526020017f686970706f706f74616d7573000000000000000000000000000000000000000081525081526020016040518060400160405280600381526020017f706967000000000000000000000000000000000000000000000000000000000081525081526020016040518060400160405280600581526020017f736865657000000000000000000000000000000000000000000000000000000081525081526020016040518060400160405280600381526020017f636f77000000000000000000000000000000000000000000000000000000000081525081526020016040518060400160405280600481526020017f676f61740000000000000000000000000000000000000000000000000000000081525081526020016040518060400160405280600881526020017f656c697068616e7400000000000000000000000000000000000000000000000081525081526020016040518060400160405280600581526020017f746967657200000000000000000000000000000000000000000000000000000081525081526020016040518060400160405280600481526020017f6c696f6e00000000000000000000000000000000000000000000000000000000815250815250600c90600f62000b2092919062001099565b50604051806101a001604052806040518060400160405280600581526020017f677265656e00000000000000000000000000000000000000000000000000000081525081526020016040518060400160405280600481526020017f626c75650000000000000000000000000000000000000000000000000000000081525081526020016040518060400160405280600681526020017f79656c6c6f77000000000000000000000000000000000000000000000000000081525081526020016040518060400160405280600381526020017f726564000000000000000000000000000000000000000000000000000000000081525081526020016040518060400160405280600581526020017f62726f776e00000000000000000000000000000000000000000000000000000081525081526020016040518060400160405280600581526020017f776869746500000000000000000000000000000000000000000000000000000081525081526020016040518060400160405280600581526020017f626c61636b00000000000000000000000000000000000000000000000000000081525081526020016040518060400160405280600681526020017f707572706c65000000000000000000000000000000000000000000000000000081525081526020016040518060400160405280600481526020017f70696e6b0000000000000000000000000000000000000000000000000000000081525081526020016040518060400160405280600481526020017f677265790000000000000000000000000000000000000000000000000000000081525081526020016040518060400160405280600681526020017f6f72616e6765000000000000000000000000000000000000000000000000000081525081526020016040518060400160405280600481526020017f676f6c640000000000000000000000000000000000000000000000000000000081525081526020016040518060400160405280600681526020017f73696c7665720000000000000000000000000000000000000000000000000000815250815250600d90600d62000e3c92919062001100565b5034801562000e4a57600080fd5b506040518060400160405280600a81526020017f4d69636879546f6b656e000000000000000000000000000000000000000000008152506040518060400160405280600381526020017f4d544b0000000000000000000000000000000000000000000000000000000000815250816000908051906020019062000ecf92919062001008565b50806001908051906020019062000ee892919062001008565b50505062000f366040518060400160405280601881526020017f4865792c2074686973206973204d696368792773206e6674000000000000000081525062000f3c60201b620012bd1760201c565b62001321565b62000fdc8160405160240162000f53919062001235565b6040516020818303038152906040527f41304fac000000000000000000000000000000000000000000000000000000007bffffffffffffffffffffffffffffffffffffffffffffffffffffffff19166020820180517bffffffffffffffffffffffffffffffffffffffffffffffffffffffff838183161783525050505062000fdf60201b60201c565b50565b60008151905060006a636f6e736f6c652e6c6f679050602083016000808483855afa5050505050565b8280546200101690620012ab565b90600052602060002090601f0160209004810192826200103a576000855562001086565b82601f106200105557805160ff191683800117855562001086565b8280016001018555821562001086579182015b828111156200108557825182559160200191906001019062001068565b5b50905062001095919062001167565b5090565b828054828255906000526020600020908101928215620010ed579160200282015b82811115620010ec578251829080519060200190620010db92919062001008565b5091602001919060010190620010ba565b5b509050620010fc919062001186565b5090565b82805482825590600052602060002090810192821562001154579160200282015b82811115620011535782518290805190602001906200114292919062001008565b509160200191906001019062001121565b5b50905062001163919062001186565b5090565b5b808211156200118257600081600090555060010162001168565b5090565b5b80821115620011aa5760008181620011a09190620011ae565b5060010162001187565b5090565b508054620011bc90620012ab565b6000825580601f10620011d05750620011f1565b601f016020900490600052602060002090810190620011f0919062001167565b5b50565b6000620012018262001259565b6200120d818562001264565b93506200121f81856020860162001275565b6200122a8162001310565b840191505092915050565b60006020820190508181036000830152620012518184620011f4565b905092915050565b600081519050919050565b600082825260208201905092915050565b60005b838110156200129557808201518184015260208101905062001278565b83811115620012a5576000848401525b50505050565b60006002820490506001821680620012c457607f821691505b60208210811415620012db57620012da620012e1565b5b50919050565b7f4e487b7100000000000000000000000000000000000000000000000000000000600052602260045260246000fd5b6000601f19601f8301169050919050565b613e3580620013316000396000f3fe608060405234801561001057600080fd5b50600436106101165760003560e01c80636352211e116100a2578063b88d4fde11610071578063b88d4fde14610317578063c281908714610333578063c87b56dd14610363578063d8cb55e314610393578063e985e9c51461039d57610116565b80636352211e1461027d57806370a08231146102ad57806395d89b41146102dd578063a22cb465146102fb57610116565b80630c2003e1116100e95780630c2003e1146101b55780631d2793bc146101e557806323b872dd146102155780632c4fc2071461023157806342842e0e1461026157610116565b806301ffc9a71461011b57806306fdde031461014b578063081812fc14610169578063095ea7b314610199575b600080fd5b61013560048036038101906101309190612785565b6103cd565b6040516101429190612f8f565b60405180910390f35b6101536104af565b6040516101609190612faa565b60405180910390f35b610183600480360381019061017e91906127d7565b610541565b6040516101909190612eff565b60405180910390f35b6101b360048036038101906101ae9190612749565b6105c6565b005b6101cf60048036038101906101ca91906127d7565b6106de565b6040516101dc9190612faa565b60405180910390f35b6101ff60048036038101906101fa91906127d7565b6107fc565b60405161020c9190612faa565b60405180910390f35b61022f600480360381019061022a9190612643565b61091a565b005b61024b600480360381019061024691906127d7565b61097a565b6040516102589190612faa565b60405180910390f35b61027b60048036038101906102769190612643565b610a98565b005b610297600480360381019061029291906127d7565b610ab8565b6040516102a49190612eff565b60405180910390f35b6102c760048036038101906102c291906125de565b610b6a565b6040516102d4919061323a565b60405180910390f35b6102e5610c22565b6040516102f29190612faa565b60405180910390f35b6103156004803603810190610310919061270d565b610cb4565b005b610331600480360381019061032c9190612692565b610cca565b005b61034d600480360381019061034891906127d7565b610d2c565b60405161035a9190612faa565b60405180910390f35b61037d600480360381019061037891906127d7565b610e4a565b60405161038a9190612faa565b60405180910390f35b61039b610f9c565b005b6103b760048036038101906103b29190612607565b611229565b6040516103c49190612f8f565b60405180910390f35b60007f80ac58cd000000000000000000000000000000000000000000000000000000007bffffffffffffffffffffffffffffffffffffffffffffffffffffffff1916827bffffffffffffffffffffffffffffffffffffffffffffffffffffffff1916148061049857507f5b5e139f000000000000000000000000000000000000000000000000000000007bffffffffffffffffffffffffffffffffffffffffffffffffffffffff1916827bffffffffffffffffffffffffffffffffffffffffffffffffffffffff1916145b806104a857506104a782611356565b5b9050919050565b6060600080546104be906134ce565b80601f01602080910402602001604051908101604052809291908181526020018280546104ea906134ce565b80156105375780601f1061050c57610100808354040283529160200191610537565b820191906000526020600020905b81548152906001019060200180831161051a57829003601f168201915b5050505050905090565b600061054c826113c0565b61058b576040517f08c379a0000000000000000000000000000000000000000000000000000000008152600401610582906131ba565b60405180910390fd5b6004600083815260200190815260200160002060009054906101000a900473ffffffffffffffffffffffffffffffffffffffff169050919050565b60006105d182610ab8565b90508073ffffffffffffffffffffffffffffffffffffffff168373ffffffffffffffffffffffffffffffffffffffff161415610642576040517f08c379a0000000000000000000000000000000000000000000000000000000008152600401610639906131fa565b60405180910390fd5b8073ffffffffffffffffffffffffffffffffffffffff1661066161142c565b73ffffffffffffffffffffffffffffffffffffffff161480610690575061068f8161068a61142c565b611229565b5b6106cf576040517f08c379a00000000000000000000000000000000000000000000000000000000081526004016106c6906130fa565b60405180910390fd5b6106d98383611434565b505050565b606060006107126106ee846114ed565b6040516020016106fe9190612dfa565b60405160208183030381529060405261169a565b9050600b8054905081610725919061357a565b9050600b8181548110610761577f4e487b7100000000000000000000000000000000000000000000000000000000600052603260045260246000fd5b906000526020600020018054610776906134ce565b80601f01602080910402602001604051908101604052809291908181526020018280546107a2906134ce565b80156107ef5780601f106107c4576101008083540402835291602001916107ef565b820191906000526020600020905b8154815290600101906020018083116107d257829003601f168201915b5050505050915050919050565b6060600061083061080c846114ed565b60405160200161081c9190612e1c565b60405160208183030381529060405261169a565b9050600c8054905081610843919061357a565b9050600c818154811061087f577f4e487b7100000000000000000000000000000000000000000000000000000000600052603260045260246000fd5b906000526020600020018054610894906134ce565b80601f01602080910402602001604051908101604052809291908181526020018280546108c0906134ce565b801561090d5780601f106108e25761010080835404028352916020019161090d565b820191906000526020600020905b8154815290600101906020018083116108f057829003601f168201915b5050505050915050919050565b61092b61092561142c565b826116cd565b61096a576040517f08c379a00000000000000000000000000000000000000000000000000000000081526004016109619061321a565b60405180910390fd5b6109758383836117ab565b505050565b606060006109ae61098a846114ed565b60405160200161099a9190612edd565b60405160208183030381529060405261169a565b9050600d80549050816109c1919061357a565b9050600d81815481106109fd577f4e487b7100000000000000000000000000000000000000000000000000000000600052603260045260246000fd5b906000526020600020018054610a12906134ce565b80601f0160208091040260200160405190810160405280929190818152602001828054610a3e906134ce565b8015610a8b5780601f10610a6057610100808354040283529160200191610a8b565b820191906000526020600020905b815481529060010190602001808311610a6e57829003601f168201915b5050505050915050919050565b610ab383838360405180602001604052806000815250610cca565b505050565b6000806002600084815260200190815260200160002060009054906101000a900473ffffffffffffffffffffffffffffffffffffffff169050600073ffffffffffffffffffffffffffffffffffffffff168173ffffffffffffffffffffffffffffffffffffffff161415610b61576040517f08c379a0000000000000000000000000000000000000000000000000000000008152600401610b589061313a565b60405180910390fd5b80915050919050565b60008073ffffffffffffffffffffffffffffffffffffffff168273ffffffffffffffffffffffffffffffffffffffff161415610bdb576040517f08c379a0000000000000000000000000000000000000000000000000000000008152600401610bd29061311a565b60405180910390fd5b600360008373ffffffffffffffffffffffffffffffffffffffff1673ffffffffffffffffffffffffffffffffffffffff168152602001908152602001600020549050919050565b606060018054610c31906134ce565b80601f0160208091040260200160405190810160405280929190818152602001828054610c5d906134ce565b8015610caa5780601f10610c7f57610100808354040283529160200191610caa565b820191906000526020600020905b815481529060010190602001808311610c8d57829003601f168201915b5050505050905090565b610cc6610cbf61142c565b8383611a12565b5050565b610cdb610cd561142c565b836116cd565b610d1a576040517f08c379a0000000000000000000000000000000000000000000000000000000008152600401610d119061321a565b60405180910390fd5b610d2684848484611b7f565b50505050565b60606000610d60610d3c846114ed565b604051602001610d4c9190612e3e565b60405160208183030381529060405261169a565b9050600a8054905081610d73919061357a565b9050600a8181548110610daf577f4e487b7100000000000000000000000000000000000000000000000000000000600052603260045260246000fd5b906000526020600020018054610dc4906134ce565b80601f0160208091040260200160405190810160405280929190818152602001828054610df0906134ce565b8015610e3d5780601f10610e1257610100808354040283529160200191610e3d565b820191906000526020600020905b815481529060010190602001808311610e2057829003601f168201915b5050505050915050919050565b6060610e55826113c0565b610e94576040517f08c379a0000000000000000000000000000000000000000000000000000000008152600401610e8b9061319a565b60405180910390fd5b6000600660008481526020019081526020016000208054610eb4906134ce565b80601f0160208091040260200160405190810160405280929190818152602001828054610ee0906134ce565b8015610f2d5780601f10610f0257610100808354040283529160200191610f2d565b820191906000526020600020905b815481529060010190602001808311610f1057829003601f168201915b505050505090506000610f3e611bdb565b9050600081511415610f54578192505050610f97565b600082511115610f89578082604051602001610f71929190612d3a565b60405160208183030381529060405292505050610f97565b610f9284611bf2565b925050505b919050565b6000610fa86007611c99565b90506000610fb582610d2c565b90506000610fc2836106de565b90506000610fcf846107fc565b90506000838383604051602001610fe893929190612d5e565b604051602081830303815290604052905060006110048661097a565b905060006008826009856040516020016110219493929190612d8f565b604051602081830303815290604052905060006110668461104184611ca7565b604051602001611052929190612e60565b604051602081830303815290604052611ca7565b905060008160405160200161107b9190612ebb565b60405160208183030381529060405290506110ca6040518060400160405280601581526020017f0a2d2d2d2d2d2d2d2d2d2d2d2d2d2d2d2d2d2d2d2d00000000000000000000008152506112bd565b6110f2816040516020016110de9190612dd8565b6040516020818303038152906040526112bd565b6111306040518060400160405280601581526020017f2d2d2d2d2d2d2d2d2d2d2d2d2d2d2d2d2d2d2d2d0a00000000000000000000008152506112bd565b61113a338a611e65565b61115c89604051806060016040528060358152602001613d8b60359139611e83565b61119b6040518060400160405280601b81526020017f4e465420686173206265656e206d696e74656420746f2025732e2e000000000081525033611ef7565b6111a56007611f93565b6111e56040518060400160405280601e81526020017f416e206e667420686173206265656e206d696e74656420746f2025732e2e00008152508a33611fa9565b7f4a6b08d3fbbc883eda9d66e027df2a6accf06ca2f41f29decafce21dad48a0a0338a604051611216929190612f66565b60405180910390a1505050505050505050565b6000600560008473ffffffffffffffffffffffffffffffffffffffff1673ffffffffffffffffffffffffffffffffffffffff16815260200190815260200160002060008373ffffffffffffffffffffffffffffffffffffffff1673ffffffffffffffffffffffffffffffffffffffff16815260200190815260200160002060009054906101000a900460ff16905092915050565b611353816040516024016112d19190612faa565b6040516020818303038152906040527f41304fac000000000000000000000000000000000000000000000000000000007bffffffffffffffffffffffffffffffffffffffffffffffffffffffff19166020820180517bffffffffffffffffffffffffffffffffffffffffffffffffffffffff8381831617835250505050612048565b50565b60007f01ffc9a7000000000000000000000000000000000000000000000000000000007bffffffffffffffffffffffffffffffffffffffffffffffffffffffff1916827bffffffffffffffffffffffffffffffffffffffffffffffffffffffff1916149050919050565b60008073ffffffffffffffffffffffffffffffffffffffff166002600084815260200190815260200160002060009054906101000a900473ffffffffffffffffffffffffffffffffffffffff1673ffffffffffffffffffffffffffffffffffffffff1614159050919050565b600033905090565b816004600083815260200190815260200160002060006101000a81548173ffffffffffffffffffffffffffffffffffffffff021916908373ffffffffffffffffffffffffffffffffffffffff160217905550808273ffffffffffffffffffffffffffffffffffffffff166114a783610ab8565b73ffffffffffffffffffffffffffffffffffffffff167f8c5be1e5ebec7d5bd14f71427d1e84f3dd0314c0f7b2291e5b200ac8c7c3b92560405160405180910390a45050565b60606000821415611535576040518060400160405280600181526020017f30000000000000000000000000000000000000000000000000000000000000008152509050611695565b600082905060005b6000821461156757808061155090613531565b915050600a826115609190613359565b915061153d565b60008167ffffffffffffffff8111156115a9577f4e487b7100000000000000000000000000000000000000000000000000000000600052604160045260246000fd5b6040519080825280601f01601f1916602001820160405280156115db5781602001600182028036833780820191505090505b5090505b6000851461168e576001826115f491906133e4565b9150600a85611603919061357a565b603061160f9190613303565b60f81b81838151811061164b577f4e487b7100000000000000000000000000000000000000000000000000000000600052603260045260246000fd5b60200101907effffffffffffffffffffffffffffffffffffffffffffffffffffffffffffff1916908160001a905350600a856116879190613359565b94506115df565b8093505050505b919050565b6000816040516020016116ad9190612d23565b6040516020818303038152906040528051906020012060001c9050919050565b60006116d8826113c0565b611717576040517f08c379a000000000000000000000000000000000000000000000000000000000815260040161170e906130da565b60405180910390fd5b600061172283610ab8565b90508073ffffffffffffffffffffffffffffffffffffffff168473ffffffffffffffffffffffffffffffffffffffff16148061179157508373ffffffffffffffffffffffffffffffffffffffff1661177984610541565b73ffffffffffffffffffffffffffffffffffffffff16145b806117a257506117a18185611229565b5b91505092915050565b8273ffffffffffffffffffffffffffffffffffffffff166117cb82610ab8565b73ffffffffffffffffffffffffffffffffffffffff1614611821576040517f08c379a00000000000000000000000000000000000000000000000000000000081526004016118189061305a565b60405180910390fd5b600073ffffffffffffffffffffffffffffffffffffffff168273ffffffffffffffffffffffffffffffffffffffff161415611891576040517f08c379a00000000000000000000000000000000000000000000000000000000081526004016118889061309a565b60405180910390fd5b61189c838383612071565b6118a7600082611434565b6001600360008573ffffffffffffffffffffffffffffffffffffffff1673ffffffffffffffffffffffffffffffffffffffff16815260200190815260200160002060008282546118f791906133e4565b925050819055506001600360008473ffffffffffffffffffffffffffffffffffffffff1673ffffffffffffffffffffffffffffffffffffffff168152602001908152602001600020600082825461194e9190613303565b92505081905550816002600083815260200190815260200160002060006101000a81548173ffffffffffffffffffffffffffffffffffffffff021916908373ffffffffffffffffffffffffffffffffffffffff160217905550808273ffffffffffffffffffffffffffffffffffffffff168473ffffffffffffffffffffffffffffffffffffffff167fddf252ad1be2c89b69c2b068fc378daa952ba7f163c4a11628f55a4df523b3ef60405160405180910390a4611a0d838383612076565b505050565b8173ffffffffffffffffffffffffffffffffffffffff168373ffffffffffffffffffffffffffffffffffffffff161415611a81576040517f08c379a0000000000000000000000000000000000000000000000000000000008152600401611a78906130ba565b60405180910390fd5b80600560008573ffffffffffffffffffffffffffffffffffffffff1673ffffffffffffffffffffffffffffffffffffffff16815260200190815260200160002060008473ffffffffffffffffffffffffffffffffffffffff1673ffffffffffffffffffffffffffffffffffffffff16815260200190815260200160002060006101000a81548160ff0219169083151502179055508173ffffffffffffffffffffffffffffffffffffffff168373ffffffffffffffffffffffffffffffffffffffff167f17307eab39ab6107e8899845ad3d59bd9653f200f220920489ca2b5937696c3183604051611b729190612f8f565b60405180910390a3505050565b611b8a8484846117ab565b611b968484848461207b565b611bd5576040517f08c379a0000000000000000000000000000000000000000000000000000000008152600401611bcc9061303a565b60405180910390fd5b50505050565b606060405180602001604052806000815250905090565b6060611bfd826113c0565b611c3c576040517f08c379a0000000000000000000000000000000000000000000000000000000008152600401611c33906131da565b60405180910390fd5b6000611c46611bdb565b90506000815111611c665760405180602001604052806000815250611c91565b80611c70846114ed565b604051602001611c81929190612d3a565b6040516020818303038152906040525b915050919050565b600081600001549050919050565b60606000825190506000811415611cd05760405180602001604052806000815250915050611e60565b60006003600283611ce19190613303565b611ceb9190613359565b6004611cf7919061338a565b90506000602082611d089190613303565b67ffffffffffffffff811115611d47577f4e487b7100000000000000000000000000000000000000000000000000000000600052604160045260246000fd5b6040519080825280601f01601f191660200182016040528015611d795781602001600182028036833780820191505090505b5090506000604051806060016040528060408152602001613dc0604091399050600181016020830160005b86811015611e1d5760038101905062ffffff818a015116603f8160121c168401518060081b905060ff603f83600c1c1686015116810190508060081b905060ff603f8360061c1686015116810190508060081b905060ff603f831686015116810190508060e01b90508084526004840193505050611da4565b506003860660018114611e375760028114611e4757611e52565b613d3d60f01b6002830352611e52565b603d60f81b60018303525b508484525050819450505050505b919050565b611e7f828260405180602001604052806000815250612212565b5050565b611e8c826113c0565b611ecb576040517f08c379a0000000000000000000000000000000000000000000000000000000008152600401611ec29061315a565b60405180910390fd5b80600660008481526020019081526020016000209080519060200190611ef292919061246a565b505050565b611f8f8282604051602401611f0d929190612fcc565b6040516020818303038152906040527f319af333000000000000000000000000000000000000000000000000000000007bffffffffffffffffffffffffffffffffffffffffffffffffffffffff19166020820180517bffffffffffffffffffffffffffffffffffffffffffffffffffffffff8381831617835250505050612048565b5050565b6001816000016000828254019250508190555050565b612043838383604051602401611fc193929190612ffc565b6040516020818303038152906040527fe3849f79000000000000000000000000000000000000000000000000000000007bffffffffffffffffffffffffffffffffffffffffffffffffffffffff19166020820180517bffffffffffffffffffffffffffffffffffffffffffffffffffffffff8381831617835250505050612048565b505050565b60008151905060006a636f6e736f6c652e6c6f679050602083016000808483855afa5050505050565b505050565b505050565b600061209c8473ffffffffffffffffffffffffffffffffffffffff1661226d565b15612205578373ffffffffffffffffffffffffffffffffffffffff1663150b7a026120c561142c565b8786866040518563ffffffff1660e01b81526004016120e79493929190612f1a565b602060405180830381600087803b15801561210157600080fd5b505af192505050801561213257506040513d601f19601f8201168201806040525081019061212f91906127ae565b60015b6121b5573d8060008114612162576040519150601f19603f3d011682016040523d82523d6000602084013e612167565b606091505b506000815114156121ad576040517f08c379a00000000000000000000000000000000000000000000000000000000081526004016121a49061303a565b60405180910390fd5b805181602001fd5b63150b7a0260e01b7bffffffffffffffffffffffffffffffffffffffffffffffffffffffff1916817bffffffffffffffffffffffffffffffffffffffffffffffffffffffff19161491505061220a565b600190505b949350505050565b61221c8383612290565b612229600084848461207b565b612268576040517f08c379a000000000000000000000000000000000000000000000000000000000815260040161225f9061303a565b60405180910390fd5b505050565b6000808273ffffffffffffffffffffffffffffffffffffffff163b119050919050565b600073ffffffffffffffffffffffffffffffffffffffff168273ffffffffffffffffffffffffffffffffffffffff161415612300576040517f08c379a00000000000000000000000000000000000000000000000000000000081526004016122f79061317a565b60405180910390fd5b612309816113c0565b15612349576040517f08c379a00000000000000000000000000000000000000000000000000000000081526004016123409061307a565b60405180910390fd5b61235560008383612071565b6001600360008473ffffffffffffffffffffffffffffffffffffffff1673ffffffffffffffffffffffffffffffffffffffff16815260200190815260200160002060008282546123a59190613303565b92505081905550816002600083815260200190815260200160002060006101000a81548173ffffffffffffffffffffffffffffffffffffffff021916908373ffffffffffffffffffffffffffffffffffffffff160217905550808273ffffffffffffffffffffffffffffffffffffffff16600073ffffffffffffffffffffffffffffffffffffffff167fddf252ad1be2c89b69c2b068fc378daa952ba7f163c4a11628f55a4df523b3ef60405160405180910390a461246660008383612076565b5050565b828054612476906134ce565b90600052602060002090601f01602090048101928261249857600085556124df565b82601f106124b157805160ff19168380011785556124df565b828001600101855582156124df579182015b828111156124de5782518255916020019190600101906124c3565b5b5090506124ec91906124f0565b5090565b5b808211156125095760008160009055506001016124f1565b5090565b600061252061251b8461327a565b613255565b90508281526020810184848401111561253857600080fd5b61254384828561348c565b509392505050565b60008135905061255a81613d2e565b92915050565b60008135905061256f81613d45565b92915050565b60008135905061258481613d5c565b92915050565b60008151905061259981613d5c565b92915050565b600082601f8301126125b057600080fd5b81356125c084826020860161250d565b91505092915050565b6000813590506125d881613d73565b92915050565b6000602082840312156125f057600080fd5b60006125fe8482850161254b565b91505092915050565b6000806040838503121561261a57600080fd5b60006126288582860161254b565b92505060206126398582860161254b565b9150509250929050565b60008060006060848603121561265857600080fd5b60006126668682870161254b565b93505060206126778682870161254b565b9250506040612688868287016125c9565b9150509250925092565b600080600080608085870312156126a857600080fd5b60006126b68782880161254b565b94505060206126c78782880161254b565b93505060406126d8878288016125c9565b925050606085013567ffffffffffffffff8111156126f557600080fd5b6127018782880161259f565b91505092959194509250565b6000806040838503121561272057600080fd5b600061272e8582860161254b565b925050602061273f85828601612560565b9150509250929050565b6000806040838503121561275c57600080fd5b600061276a8582860161254b565b925050602061277b858286016125c9565b9150509250929050565b60006020828403121561279757600080fd5b60006127a584828501612575565b91505092915050565b6000602082840312156127c057600080fd5b60006127ce8482850161258a565b91505092915050565b6000602082840312156127e957600080fd5b60006127f7848285016125c9565b91505092915050565b61280981613418565b82525050565b6128188161342a565b82525050565b6000612829826132c0565b61283381856132d6565b935061284381856020860161349b565b61284c81613667565b840191505092915050565b6000612862826132cb565b61286c81856132e7565b935061287c81856020860161349b565b61288581613667565b840191505092915050565b600061289b826132cb565b6128a581856132f8565b93506128b581856020860161349b565b80840191505092915050565b600081546128ce816134ce565b6128d881866132f8565b945060018216600081146128f3576001811461290457612937565b60ff19831686528186019350612937565b61290d856132ab565b60005b8381101561292f57815481890152600182019150602081019050612910565b838801955050505b50505092915050565b600061294d6025836132f8565b915061295882613678565b602582019050919050565b60006129706008836132f8565b915061297b826136c7565b600882019050919050565b60006129936032836132e7565b915061299e826136f0565b604082019050919050565b60006129b66025836132e7565b91506129c18261373f565b604082019050919050565b60006129d9601c836132e7565b91506129e48261378e565b602082019050919050565b60006129fc6021836132f8565b9150612a07826137b7565b602182019050919050565b6000612a1f6003836132f8565b9150612a2a82613806565b600382019050919050565b6000612a426024836132e7565b9150612a4d8261382f565b604082019050919050565b6000612a656019836132e7565b9150612a708261387e565b602082019050919050565b6000612a88602c836132e7565b9150612a93826138a7565b604082019050919050565b6000612aab600d836132f8565b9150612ab6826138f6565b600d82019050919050565b6000612ace6038836132e7565b9150612ad98261391f565b604082019050919050565b6000612af1602a836132e7565b9150612afc8261396e565b604082019050919050565b6000612b146029836132e7565b9150612b1f826139bd565b604082019050919050565b6000612b37602e836132e7565b9150612b4282613a0c565b604082019050919050565b6000612b5a6002836132f8565b9150612b6582613a5b565b600282019050919050565b6000612b7d6020836132e7565b9150612b8882613a84565b602082019050919050565b6000612ba06031836132e7565b9150612bab82613aad565b604082019050919050565b6000612bc3602c836132e7565b9150612bce82613afc565b604082019050919050565b6000612be66004836132f8565b9150612bf182613b4b565b600482019050919050565b6000612c09602f836132e7565b9150612c1482613b74565b604082019050919050565b6000612c2c600a836132f8565b9150612c3782613bc3565b600a82019050919050565b6000612c4f6021836132e7565b9150612c5a82613bec565b604082019050919050565b6000612c72601d836132f8565b9150612c7d82613c3b565b601d82019050919050565b6000612c956000836132f8565b9150612ca082613c64565b600082019050919050565b6000612cb86031836132e7565b9150612cc382613c67565b604082019050919050565b6000612cdb6025836132f8565b9150612ce682613cb6565b602582019050919050565b6000612cfe6005836132f8565b9150612d0982613d05565b600582019050919050565b612d1d81613482565b82525050565b6000612d2f8284612890565b915081905092915050565b6000612d468285612890565b9150612d528284612890565b91508190509392505050565b6000612d6a8286612890565b9150612d768285612890565b9150612d828284612890565b9150819050949350505050565b6000612d9b82876128c1565b9150612da78286612890565b9150612db382856128c1565b9150612dbf8284612890565b9150612dca82612a9e565b915081905095945050505050565b6000612de382612940565b9150612def8284612890565b915081905092915050565b6000612e0582612963565b9150612e118284612890565b915081905092915050565b6000612e2782612a12565b9150612e338284612890565b915081905092915050565b6000612e4982612bd9565b9150612e558284612890565b915081905092915050565b6000612e6b82612c1f565b9150612e778285612890565b9150612e8282612c88565b9150612e8d82612cce565b9150612e98826129ef565b9150612ea48284612890565b9150612eaf82612b4d565b91508190509392505050565b6000612ec682612c65565b9150612ed28284612890565b915081905092915050565b6000612ee882612cf1565b9150612ef48284612890565b915081905092915050565b6000602082019050612f146000830184612800565b92915050565b6000608082019050612f2f6000830187612800565b612f3c6020830186612800565b612f496040830185612d14565b8181036060830152612f5b818461281e565b905095945050505050565b6000604082019050612f7b6000830185612800565b612f886020830184612d14565b9392505050565b6000602082019050612fa4600083018461280f565b92915050565b60006020820190508181036000830152612fc48184612857565b905092915050565b60006040820190508181036000830152612fe68185612857565b9050612ff56020830184612800565b9392505050565b600060608201905081810360008301526130168186612857565b90506130256020830185612d14565b6130326040830184612800565b949350505050565b6000602082019050818103600083015261305381612986565b9050919050565b60006020820190508181036000830152613073816129a9565b9050919050565b60006020820190508181036000830152613093816129cc565b9050919050565b600060208201905081810360008301526130b381612a35565b9050919050565b600060208201905081810360008301526130d381612a58565b9050919050565b600060208201905081810360008301526130f381612a7b565b9050919050565b6000602082019050818103600083015261311381612ac1565b9050919050565b6000602082019050818103600083015261313381612ae4565b9050919050565b6000602082019050818103600083015261315381612b07565b9050919050565b6000602082019050818103600083015261317381612b2a565b9050919050565b6000602082019050818103600083015261319381612b70565b9050919050565b600060208201905081810360008301526131b381612b93565b9050919050565b600060208201905081810360008301526131d381612bb6565b9050919050565b600060208201905081810360008301526131f381612bfc565b9050919050565b6000602082019050818103600083015261321381612c42565b9050919050565b6000602082019050818103600083015261323381612cab565b9050919050565b600060208201905061324f6000830184612d14565b92915050565b600061325f613270565b905061326b8282613500565b919050565b6000604051905090565b600067ffffffffffffffff82111561329557613294613638565b5b61329e82613667565b9050602081019050919050565b60008190508160005260206000209050919050565b600081519050919050565b600081519050919050565b600082825260208201905092915050565b600082825260208201905092915050565b600081905092915050565b600061330e82613482565b915061331983613482565b9250827fffffffffffffffffffffffffffffffffffffffffffffffffffffffffffffffff0382111561334e5761334d6135ab565b5b828201905092915050565b600061336482613482565b915061336f83613482565b92508261337f5761337e6135da565b5b828204905092915050565b600061339582613482565b91506133a083613482565b9250817fffffffffffffffffffffffffffffffffffffffffffffffffffffffffffffffff04831182151516156133d9576133d86135ab565b5b828202905092915050565b60006133ef82613482565b91506133fa83613482565b92508282101561340d5761340c6135ab565b5b828203905092915050565b600061342382613462565b9050919050565b60008115159050919050565b60007fffffffff0000000000000000000000000000000000000000000000000000000082169050919050565b600073ffffffffffffffffffffffffffffffffffffffff82169050919050565b6000819050919050565b82818337600083830152505050565b60005b838110156134b957808201518184015260208101905061349e565b838111156134c8576000848401525b50505050565b600060028204905060018216806134e657607f821691505b602082108114156134fa576134f9613609565b5b50919050565b61350982613667565b810181811067ffffffffffffffff8211171561352857613527613638565b5b80604052505050565b600061353c82613482565b91507fffffffffffffffffffffffffffffffffffffffffffffffffffffffffffffffff82141561356f5761356e6135ab565b5b600182019050919050565b600061358582613482565b915061359083613482565b9250826135a05761359f6135da565b5b828206905092915050565b7f4e487b7100000000000000000000000000000000000000000000000000000000600052601160045260246000fd5b7f4e487b7100000000000000000000000000000000000000000000000000000000600052601260045260246000fd5b7f4e487b7100000000000000000000000000000000000000000000000000000000600052602260045260246000fd5b7f4e487b7100000000000000000000000000000000000000000000000000000000600052604160045260246000fd5b6000601f19601f8301169050919050565b7f68747470733a2f2f6e6674707265766965772e30786465762e636f6465732f3f60008201527f636f64653d000000000000000000000000000000000000000000000000000000602082015250565b7f63756363756d6261000000000000000000000000000000000000000000000000600082015250565b7f4552433732313a207472616e7366657220746f206e6f6e20455243373231526560008201527f63656976657220696d706c656d656e7465720000000000000000000000000000602082015250565b7f4552433732313a207472616e736665722066726f6d20696e636f72726563742060008201527f6f776e6572000000000000000000000000000000000000000000000000000000602082015250565b7f4552433732313a20746f6b656e20616c7265616479206d696e74656400000000600082015250565b7f696d6167653a646174613a696d6167652f7376672b786d6c3b6261736536342c60008201527f2700000000000000000000000000000000000000000000000000000000000000602082015250565b7f646f670000000000000000000000000000000000000000000000000000000000600082015250565b7f4552433732313a207472616e7366657220746f20746865207a65726f2061646460008201527f7265737300000000000000000000000000000000000000000000000000000000602082015250565b7f4552433732313a20617070726f766520746f2063616c6c657200000000000000600082015250565b7f4552433732313a206f70657261746f7220717565727920666f72206e6f6e657860008201527f697374656e7420746f6b656e0000000000000000000000000000000000000000602082015250565b7f3c2f746578743e3c2f7376673e00000000000000000000000000000000000000600082015250565b7f4552433732313a20617070726f76652063616c6c6572206973206e6f74206f7760008201527f6e6572206e6f7220617070726f76656420666f7220616c6c0000000000000000602082015250565b7f4552433732313a2062616c616e636520717565727920666f7220746865207a6560008201527f726f206164647265737300000000000000000000000000000000000000000000602082015250565b7f4552433732313a206f776e657220717565727920666f72206e6f6e657869737460008201527f656e7420746f6b656e0000000000000000000000000000000000000000000000602082015250565b7f45524337323155524953746f726167653a2055524920736574206f66206e6f6e60008201527f6578697374656e7420746f6b656e000000000000000000000000000000000000602082015250565b7f227d000000000000000000000000000000000000000000000000000000000000600082015250565b7f4552433732313a206d696e7420746f20746865207a65726f2061646472657373600082015250565b7f45524337323155524953746f726167653a2055524920717565727920666f722060008201527f6e6f6e6578697374656e7420746f6b656e000000000000000000000000000000602082015250565b7f4552433732313a20617070726f76656420717565727920666f72206e6f6e657860008201527f697374656e7420746f6b656e0000000000000000000000000000000000000000602082015250565b7f73616c7400000000000000000000000000000000000000000000000000000000600082015250565b7f4552433732314d657461646174613a2055524920717565727920666f72206e6f60008201527f6e6578697374656e7420746f6b656e0000000000000000000000000000000000602082015250565b7f7b226e616d65223a202200000000000000000000000000000000000000000000600082015250565b7f4552433732313a20617070726f76616c20746f2063757272656e74206f776e6560008201527f7200000000000000000000000000000000000000000000000000000000000000602082015250565b7f646174613a6170706c69636174696f6e2f6a736f6e3b6261736536342c000000600082015250565b50565b7f4552433732313a207472616e736665722063616c6c6572206973206e6f74206f60008201527f776e6572206e6f7220617070726f766564000000000000000000000000000000602082015250565b7f6465736372697074696f6e3a4120686967686c79206163636c61696d6564206d60008201527f656d65732e000000000000000000000000000000000000000000000000000000602082015250565b7f677265656e000000000000000000000000000000000000000000000000000000600082015250565b613d3781613418565b8114613d4257600080fd5b50565b613d4e8161342a565b8114613d5957600080fd5b50565b613d6581613436565b8114613d7057600080fd5b50565b613d7c81613482565b8114613d8757600080fd5b5056fe697066733a2f2f516d61436d63616a395a484b724546314e6361466755414758477862794e5844675042705544776534727434316d4142434445464748494a4b4c4d4e4f505152535455565758595a6162636465666768696a6b6c6d6e6f707172737475767778797a303132333435363738392b2fa2646970667358221220b922e9baff768819977b31a1fed0cfcbcd683f842a868a656f31d64b00e4d57264736f6c634300080100333c73766720786d6c6e733d27687474703a2f2f7777772e77332e6f72672f323030302f73766727207072657365727665417370656374526174696f3d27784d696e594d696e206d656574272076696577426f783d273020302033353020333530273e3c7374796c653e2e62617365207b2066696c6c3a2077686974653b20666f6e742d66616d696c793a2073657269663b20666f6e742d73697a653a20323470783b207d3c2f7374796c653e3c726563742077696474683d273130302527206865696768743d2731303025272066696c6c3d27626c61636b27202f3e3c7465787420783d273530252720793d273530252720636c6173733d27626173652720646f6d696e616e742d626173656c696e653d276d6964646c652720746578742d616e63686f723d276d6964646c65273e272f3e3c7465787420783d273530252720793d273530252720636c6173733d27626173652720646f6d696e616e742d626173656c696e653d276d6964646c652720746578742d616e63686f723d276d6964646c65273e",
  "linkReferences": {},
  "deployedLinkReferences": {}
}